:020000040800F2
:1030000078430020594B0008E9330008EB330008EF
:10301000EF330008F3330008F73300080000000026
:10302000000000000000000000000000FB3300086A
:10303000FD33000800000000FF330008B73C000823
:10304000734B0008734B0008734B0008734B000868
:10305000734B0008734B0008734B0008734B000858
:10306000734B0008734B0008734B0008734B000848
:10307000734B0008734B0008734B0008734B000838
:10308000734B0008734B0008734B000801340008B1
:1030900009340008734B0008734B0008C94C010841
:1030A000734B0008C7420108734B0008734B0008BC
:1030B000734B0008734B0008A9390108734B0008D3
:1030C000734B0008734B0008734B0008734B0008E8
:1030D000734B0008734B0008734B0008734B0008D8
:1030E000734B0008734B000813340008DFF80CD052
:1030F00012F0A8FB00480047D131000878430020B7
:1031000010B54FF4A06003F02DFD10BD10B50121E6
:10311000084602F04FF80121984801F060FE10BD0A
:103120002DE9F041964801880088401C944A10809F
:103130000A2901DABDE8F08100209149088091490F
:10314000088812F098FA06468F4A904B12F0A9F9B7
:10315000044612F0B6FA8E4908800846008800B985
:10316000E8E78C48007800B9E4E78B480088884994
:10317000098890FBF1F002280FDB502000F0D2FD0F
:1031800072B6002000F037FE8449098A88B201F047
:10319000F3FA01F08BFA00BFFEE77D4800887E4914
:1031A000088000BFC6E710B501F011F800F08AFEF4
:1031B0000AF074FD0BF0CCFC0BF0D8FB784991F8C9
:1031C000BA0201F0ECFB11F0EBFD0AF029F810BD9A
:1031D000ADF50C7D0025FFF793FFFFF797FF01F09A
:1031E0000BF900F015FD4FF4FA7000F09BFD00F0B4
:1031F000E5FE00F0ADFD00F0FDF900F038FB09F050
:1032000015F910F0ADF910F06AFB10F0EDFB01F0CC
:1032100081FB6946002007F0D0FB06464FF4001002
:10322000604908600013604908605E4800680968EA
:10323000B0FBF1F05D49086026B900F0EEFEB0F594
:10324000805F18D109F047F90421002009F02FFF11
:1032500009F057F909F055F909F053F909F051F956
:10326000102009F0B2F805F083FB05F069FB04F0CB
:1032700055FD00BFFEE701F006FA4849098A88B209
:10328000002101F053FA012042490870484800F03B
:10329000E3FD48A20021084609F01DFB002403E0DD
:1032A000FFF781FF601C84B2B4F5FA6FF8DB0120F0
:1032B000444988713948007840B93849B1F9421019
:1032C000414A52F8210000210AF0F4F801F06EF8AA
:1032D00060B93249B1F9140000EBD0714910A0EB8C
:1032E000410179B901202D4988820BE02B49B1F9C0
:1032F000140000EBD0714910A0EB410111B1002086
:103300002649888200BF002530480078012803D074
:103310002E480078022806D12048B0F942002C49F6
:1033200051F820500FE01D48007801280BD12948A2
:10333000B0F9040010F5F27F05DB1848B0F942003F
:10334000254951F82050642128460AF0B3F8002D91
:10335000D9D11249098A88B2012101F0E7F9012186
:103360001E4809F0F2FF08E0FFF71DFF1C481D4A48
:10337000127850F8221000208847F5E7000230004C
:103380001C000020B0200020B84082E2C798DF3F38
:10339000D8060020180000201A000020C8200020B5
:1033A00014210020D8000020E0000020E8000020C8
:1033B0003A5901087265732F6C6F676F2E626D70DA
:1033C000000000000007002000000020700F002017
:1033D000080000202007002010000020A1E60008BF
:1033E000A0330020AC020020704700BFFEE700BF02
:1033F000FEE700BFFEE700BFFEE77047704770477B
:1034000010B504F02CFE10BD10B505F0CDFE10BDBA
:10341000704770470CB50020019000906B48006821
:1034200040F480306949086000BF6848006800F4D3
:10343000003000900198401C0190009818B9019844
:10344000B0F5A06FF1D16148006800F4003010B110
:103450000120009001E0002000900098012843D155
:103460005B48006840F01000594908600846006851
:1034700020F0030008600846006840F00200086081
:1034800052484068514948600846406848600846CC
:10349000406840F4806048600846406820F47C1032
:1034A00048600846406840F4E810486008460068F4
:1034B00040F08070086000BF4448006800F0007071
:1034C0000028F9D04148406820F003003F49486097
:1034D0000846406840F00200486000BF3B48406832
:1034E00000F00C000828F9D10CBD10B5FFF792FFD1
:1034F00010BD10B53548006840F001003349086040
:10350000084640683349084030494860084600682A
:10351000314908402D4908600846006820F48020A1
:1035200008600846406820F4FE0048604FF41F0021
:103530008860FFF7DAFF29482949086010BD10B5F7
:10354000002100200022214B5B6803F00C0121B117
:10355000042906D0082928D107E0224B224C2360F9
:1035600027E0204B204C236023E0184B5B6803F4DA
:103570007010164B5B6803F48032022303EB90401B
:1035800022B91A4B4343184C23600DE00F4B5B6884
:1035900003F4003323B1154B4343134C236003E082
:1035A000104B4343104C236003E00E4B0E4C236042
:1035B00000BF00BF054B5B68C3F303130C4CE15C19
:1035C000094B1B68CB40084C236010BD0010024023
:1035D000002002400000FFF8FFFFF6FE0030000868
:1035E00008ED00E000127A002000002000093D00F4
:1035F0002400002000B587B00121082001F0DAFD89
:103600000121880301F0E3FD4FF46040ADF80400B0
:1036100003208DF8060018208DF8070001A95448F2
:1036200001F00CFB40F20140ADF8040003208DF8DE
:10363000060010208DF8070001A94D4801F0FEFAA0
:1036400040F201414A4801F0A6FB4FF40060ADF89A
:10365000040003208DF8060010208DF8070001A952
:10366000434801F0EBFA4FF40061414801F093FB4D
:103670000020ADF808004FF48270ADF80A00002079
:10368000ADF80C00ADF80E00ADF810004FF400706E
:10369000ADF812000020ADF81400ADF816000720B8
:1036A000ADF8180002A9334801F00EFE012131489F
:1036B00001F0AFFE07B000BD10B504462D480088EC
:1036C0004FF6C77108402B49088008460088204300
:1036D00008800121274801F09CFE10BD10B504466A
:1036E00000BF0221234801F018FF0028F9D021462D
:1036F000204801F0BFFE00BF01211E4801F00DFF70
:103700000028F9D01B4801F0B7FEC0B210BD10B5BB
:10371000044600BF0221174801F0FFFE0028F9D03F
:103720002146144801F0A6FE00BF0121114801F016
:10373000F4FE0028F9D00F4801F09EFE10BD10B530
:1037400000BF02210B4801F0E8FE0028F9D0FF215C
:10375000084801F08FFE00BF0121064801F0DDFEA0
:103760000028F9D0034801F087FEC0B210BD000068
:10377000000C01400038004010B54FF40061FC48D7
:1037800001F00BFB0620FFF7C2FF4FF40061F84881
:1037900001F001FB10BD10B54FF40061F44801F0D9
:1037A000FCFA0420FFF7B3FF4FF40061F04801F08A
:1037B000F2FA10BD10B500244FF40061EC4801F09E
:1037C000ECFA9F20FFF7A3FFFFF7B9FF44EA00449C
:1037D000FFF7B5FF44EA0024FFF7B1FF04434FF4BD
:1037E0000061E34801F0D7FA204610BD10B54FF450
:1037F0000061DF4801F0D1FA0520FFF788FFFFF7ED
:103800009EFF04464FF40061D94801F0C4FA2046F7
:1038100010BD10B50446FFF7AFFF4FF40061D44868
:1038200001F0BBFA5020FFF772FF4FF40061D0485F
:1038300001F0B1FA4FF40061CD4801F0AEFA012079
:10384000FFF765FF2046FFF762FF4FF40061C848AD
:1038500001F0A1FA00BFFFF7C9FF00F00100002846
:10386000F9D110BD10B50020FFF7D3FF10BD10B582
:10387000FFF7F8FF00BFFFF79DFFBE498842FAD16E
:1038800010BD10B50446FFF777FF4FF40061B8484C
:1038900001F083FA2020FFF73AFFC4F30740FFF757
:1038A00036FFC4F30720FFF732FFE0B2FFF72FFF28
:1038B0004FF40061AE4801F06EFA00BFFFF796FFCB
:1038C00000F001000028F9D110BD10B50446FFF743
:1038D00053FF4FF40061A64801F05FFA5220FFF752
:1038E00016FFC4F30740FFF712FFC4F30720FFF7EA
:1038F0000EFFE0B2FFF70BFF4FF400619C4801F0B0
:103900004AFA00BFFFF772FF00F001000028F9D16A
:1039100010BD10B5FFF730FF4FF40061944801F07F
:103920003CFA6020FFF7F3FE4FF40061904801F08D
:1039300032FA00BFFFF75AFF00F001000028F9D16A
:1039400010BD2DE9F04704460F461546284605EB05
:10395000D071C1F34F0805EBD0714910A5EB4101BF
:103960001FFA81F9FFF708FF002648E046BB4FF435
:1039700000617F4801F011FAAD20FFF7C8FEC4F3E3
:103980000740FFF7C4FEC4F30720FFF7C0FEE0B214
:10399000FFF7BDFE17F81600FFF7B9FE7100491CCE
:1039A000785CFFF7B4FE4FF40061714801F0F3F961
:1039B00000BFFFF71BFF00F001000028F9D11CE059
:1039C0004FF400616A4801F0E8F9AD20FFF79FFE6F
:1039D00017F81600FFF79BFE7100491C785CFFF793
:1039E00096FE4FF40061624801F0D5F900BFFFF781
:1039F000FDFE00F001000028F9D1701C86B246459A
:103A0000B4DBFFF7C8FEB9F1000F29D0022000FB9C
:103A10000844FFF7B1FE4FF40061554801F0BDF9CD
:103A20000220FFF774FEC4F30740FFF770FEC4F3F3
:103A30000720FFF76CFEE0B2FFF769FE691E785CB5
:103A4000FFF765FE4FF40061494801F0A4F900BF9B
:103A5000FFF7CCFE00F001000028F9D1FFF79BFE34
:103A6000BDE8F0872DE9F04104460E4617464FF4B5
:103A700000613F4801F091F90320FFF748FEC4F3CD
:103A80000740FFF744FEC4F30720FFF740FEE0B213
:103A9000FFF73DFE002504E0FFF751FE7055681C5E
:103AA00085B2BD42F8DB4FF40061314801F073F993
:103AB000BDE8F0812DE9F04104460E4617464FF46B
:103AC00000612B4801F069F90B20FFF720FEC4F3D9
:103AD0000740FFF71CFEC4F30720FFF718FEE0B213
:103AE000FFF715FEFF20FFF712FE002504E0FFF7A9
:103AF00026FE7055681C85B2BD42F8DB4FF40061AC
:103B00001B4801F048F9BDE8F0812DE9F041064677
:103B10000F461446F0B2C0F58075AC4200DC254675
:103B200012E02A4639463046FFF70BFFAC4200D17F
:103B30000BE02F442E44601B84B2B4F5807F02DD7D
:103B40004FF4807500E02546EBE700BFBDE8F0814B
:103B50002DE9F0470746894616464FEA1738C7F35E
:103B60000B0ACAF58054A64200DC34464AE0000045
:103B7000000C01404125BF004FEA08304FF480524D
:103B80002249FFF76FFF002508E00AEB05001F49F7
:103B9000085CFF2800D003E0681C85B2A542F4DB76
:103BA00000BFA54217DA4FEA0830FFF76AFE00258A
:103BB00007E019F8050005EB0A01144A5054681C87
:103BC00085B2A542F5DB4FEA08304FF480520F4929
:103BD000FFF79BFF04E0224649463846FFF795FF72
:103BE000A64200D10FE008F101084FF0000AA144FD
:103BF0002744301B86B2B6F5805F02DD4FF4805457
:103C000000E03446B8E700BFBDE8F087C00F0020F1
:103C10002DE9F0416FF0040002F0F3FF0020464967
:103C200008604648006811F026FD06460022444B15
:103C300011F0A9FC044611F044FD3F4948603F489B
:103C4000006811F018FD064600223E4B11F09BFC67
:103C5000044611F036FD384988600120C8600846E6
:103C6000C068896848433449086108460169B1F170
:103C7000807F00D31DE021F07F40401E4FF0E02206
:103C8000506150170022002807DA13071D0E2E4B33
:103C900000F00F04241F1D5503E013071C0E2B4BCF
:103CA0001C5400BF00204FF0E022906107201061FB
:103CB00000BFBDE8F081204800681F49C96808447A
:103CC0001D49086070474FF0E02040694FF0E02147
:103CD0008969401A18494968B0FBF1F0164909682A
:103CE00001EB4102C2EBC11100EBC10070474FF084
:103CF000E02040694FF0E0218969401A0E49896847
:103D0000B0FBF1F00C4909680844704710B5034650
:103D1000FFF7D9FF1844841E00BFFFF7D4FFA0426D
:103D2000FBD910BD10B504464FF47A7104FB01F0C5
:103D3000FFF7ECFF10BD0000C01F00202000002096
:103D400080842E4100408F4018ED00E000E400E048
:103D500000B589B00121084601F039FA012104209B
:103D600001F028FA0220ADF8040003208DF80600C7
:103D700018208DF8070001A9874800F05FFF4FF475
:103D80008070ADF8040003208DF8060010208DF837
:103D9000070001A9804800F051FF4FF6FF70ADF811
:103DA0001C000520ADF818000020ADF81E00ADF88D
:103DB0001A0006A94FF0804002F00CF86020ADF820
:103DC00008000120ADF80A000020ADF8100002A99B
:103DD0004FF0804002F07DF80821C80602F08FFC09
:103DE00000214FF0804002F0EBFD0121880702F036
:103DF0004DFB09B000BD10B504462CB14FF48071E5
:103E0000654800F0C8FF04E04FF48071624800F09C
:103E1000C4FF10BD2DE9F04105460C465F4890FBFC
:103E2000F5F6642C01D1700809E004FB04F060434E
:103E300000EB4000800042F21071B0FBF1F0074649
:103E4000B1B24FF0804002F0B7FDB9B24FF0804000
:103E500002F0B6FDBDE8F08110B5044600205049DF
:103E60000870504908705049087050480460504824
:103E7000408E58B14D4A126891784C4A1268527877
:103E80004C4B33F8122090B2FFF7C4FF4848008E25
:103E900020B146490968C878FFF7ADFF10BD70B57D
:103EA00005460E46144600203E4908703E490870FB
:103EB0003B4804703E48408E18B131462846FFF713
:103EC000A9FF70BD10B5FFF712FF3B490968884292
:103ED00000D210BDFFF70BFF401C37490860304887
:103EE000007868B12E480078401E2D4908700846B9
:103EF000007820B900214FF0804002F061FDE8E732
:103F0000284801780078401C264A1070322900DACF
:103F1000DFE70020234908702448006870B3234875
:103F20000068007850B3204801780078401C1E4A91
:103F300010701E480068007881422ADB1B48006828
:103F4000001D1A4908600020114608701848408E6C
:103F500058B1164A12689178144A12685278154B73
:103F600033F8122090B2FFF755FF1148008E80B150
:103F70000E490968C878FFF73EFF0AE000200B49A8
:103F8000086000214FF0804002F01AFD0020FFF78A
:103F900032FF00BF9DE7000000080140001BB70092
:103FA0003A000020390000203800002034000020B2
:103FB000C8200020025901083C00002008B501215A
:103FC000042001F0F7F80121082001F0F3F80121A5
:103FD000102001F0EFF84FF40040ADF80000482049
:103FE0008DF803006946F34800F028FE4FF478701E
:103FF000ADF8000048208DF803006946EE4800F057
:104000001DFE47F63040ADF8000048208DF8030053
:104010006946EA4800F012FE08BD10B500241021E0
:10402000E64800F09EFE10B94FF4005459E02021FC
:10403000E24800F096FE10B94FF4805451E04FF47E
:104040000051DE4800F08DFE08B9202449E04FF40D
:104050008041DA4800F085FE08B9102441E04FF4B1
:104060000041D44800F07DFE10B94FF4804438E0A0
:104070004FF48061D14800F074FE10B94FF4004451
:104080002FE04FF40061CD4800F06BFE08B9022428
:1040900027E02021C84800F064FE08B9012420E090
:1040A0008021C54800F05DFE08B9082419E04021D0
:1040B000C14800F056FE08B9042412E04FF4007124
:1040C000BD4800F04EFE10B94FF4806409E04FF493
:1040D0008071B94800F045FE10B94FF4006400E06B
:1040E0000024204610BD0020B54A5289B2F5806FE9
:1040F00002DC40F0200009E0B14A5289B2F5406F7D
:1041000002DB40F0100001E040F03000AC4A928940
:10411000B2F5806F02DC40F0020009E0A84A928903
:10412000B2F5406F02DB40F0010001E040F0030017
:10413000A34A928AB2F5806F02DC40F0080009E0E1
:104140009F4A928AB2F5406F02DB40F0040001E022
:1041500040F00C009A4A528AB2F5806F02DC40F0BF
:10416000800009E0964A528AB2F5406F02DB40F0C7
:10417000400001E040F0C000924AB2F9C62252026B
:10418000642392FBF3F211B28E4AB2F9C2228E4B33
:1041900033F912208A4202DC40F4807001E040F4DE
:1041A0000070884AB2F9C8225202642392FBF3F2EB
:1041B00011B2844AB2F9C422834B33F912208A42E5
:1041C00002DC40F4806001E040F40060704770B5AC
:1041D000FFF78DFD7D490968884200D270BDFFF769
:1041E00086FD143079490860FFF717FF04467848C8
:1041F000008884424FD1002C45D07648008808BB07
:1042000075480088A043744908807448808EA0B126
:10421000724A92F8342002EB42021E2303EB420260
:10422000D1B26E4AD28EC2EB02124FF47A7303EB14
:10423000420290B21422FFF732FEFFF758FD6849A0
:1042400008601AE063480088202816DB654800886B
:10425000A04364490880B4F5005F07D0B4F5805FDF
:1042600004D05D480088A0435B4908801B20594961
:104270000880FFF73CFD5A49086056480088401CFA
:104280005449088009E00020524908804FF6FF7029
:104290005449088001E04E480480FFF724FF05469A
:1042A00051480088854202D15048058001E04E48BF
:1042B00005804FF48051414800F053FD18B90020AB
:1042C0004B49087002E001204949087000BF85E7AA
:1042D000014641480088084030B93F4800880843FB
:1042E0003D4A1080012070470020FCE73A490988C8
:1042F0000143394A1180704701463A480088084016
:1043000008B9012070470020FCE74FF6FF703549DF
:1043100008803149088000202E490880704701201C
:104320002C4908807047014630480088084100F059
:104330000300704710B504462E4830F914000728D2
:1043400023D2DFE800F02204090E13181D00042018
:10435000FFF7E9FF02461DE00020FFF7E4FF0246F9
:1043600018E00220FFF7DFFF024613E00620FFF708
:10437000DAFF02460EE00820FFF7D5FF024609E00B
:104380000A20FFF7D0FF024604E0012C01D10222EF
:1043900000E0032200BF012A01D1931E04E0032A9A
:1043A00001D1002300E00123184610BD1048007819
:1043B0007047000000080140000C0140001001405F
:1043C000B0200020142100202007002050000020F1
:1043D0004A0000204800002040000020C8200020A3
:1043E000A0020020420000204C00002046000020D7
:1043F00044000020BE23002000B591B0012104201C
:1044000000F0D8FE0121102000F0D4FE0121084662
:1044100000F0C3FE0121480200F0CCFE724801F01A
:10442000DDF9FD20ADF8400000208DF8430010A913
:104430006E4800F003FC0F20ADF8400000208DF81E
:10444000430010A96A4800F0F9FB6A4801F09CF8A3
:1044500065484C30009068480190002002906E2022
:10446000039000200490802005904000069080007A
:104470000790202008900002099000200A906946C9
:104480005C4801F023F901215A4801F04AF9002063
:104490000B9001208DF830008DF831004FF4602032
:1044A0000D9000200E900B208DF83C000BA94E487B
:1044B00001F0BBF94FF4004000F0E0FD07230122BA
:1044C0000021494801F049FA0723022211464648D3
:1044D00001F043FA072303221146434801F03DFA55
:1044E000072304221146404801F037FA072305222A
:1044F00011463D4801F031FA0723062211463A4899
:1045000001F02BFA07231A461946374801F025FA1D
:10451000072308220A21344801F01FFA0723092241
:104520000B21314801F019FA07230A220C212E48E9
:1045300001F013FA07230B220D212B4801F00DFA8D
:104540000121294801F0A8F90121274801F099F932
:10455000254801F0B8F900BF234801F0B9F9002857
:10456000FAD1214801F0BEF900BF1F4801F0BFF9A0
:104570000028FAD101211C4801F0C3F911B000BD97
:1045800030B587B0182101A810F077FE002417E09D
:10459000002511E005EB450000EBC500164901EBD5
:1045A000400030F8140001A931F81410084401A9A2
:1045B00021F81400681CC5B20A2DEBDB601CC4B2E4
:1045C0000B2CE5DB00240AE001A830F814000A21D6
:1045D00090FBF1F0094921F81400601CC4B20B2CC7
:1045E000F2DB07B030BD00000024014000080140AC
:1045F0000010014008000240D41F0020B02000201D
:1046000070B50B46194618E004134FF6FF7505EA1E
:1046100000100D7884EA2515B44E36F81550684020
:1046200004134FF6FF7505EA00100D7805F00F052D
:10463000654036F815506840491C1500A2F1010686
:10464000B2B2E1D170BD10B504464C222146002023
:10465000FFF7D6FF10B14FF0FF3010BD0020FCE790
:1046600038B5054605F148040020207060704A22E4
:104670002946FFF7C5FF00909DF80100A0709DF846
:104680000000E07038BD10B599480068FFF7DBFF07
:1046900030B94C2296480168964810F0D5FD04E0E8
:1046A0004C229549934810F0CFFD10BD70B50125FF
:1046B0009048FFF7D5FF00240AE08D480068005DB0
:1046C0008C49095D884201D0002503E0601C84B25A
:1046D0004C2CF2D300BF05B170BD26228549874816
:1046E00000F0C5F900BFF7E710B504464FF4347287
:1046F00021460020FFF784FF10B14FF0FF3010BDBE
:104700000020FCE738B5054605F53374002020701D
:10471000607040F2CE222946FFF772FF00909DF8AC
:104720000100A0709DF80000E07038BD70B504462F
:104730000D46601EC0EB001000EB40006F49503189
:1047400001EB00166E4806600068FFF7CDFF38B930
:104750004FF434726A4801686A4810F075FD05E04C
:104760004FF434726849674810F06EFD1DB1654919
:10477000887E0FF0BBFD70BD2DE9F0410546012795
:10478000681EC0EB001000EB40005C49503101EBAB
:1047900000165B4806605B48FFF7B4FF00240AE0A0
:1047A00057480068005D5749095D884201D00027DD
:1047B00004E0601C84B2B4F5347FF1D300BF0FB1C4
:1047C000BDE8F0814FF4B4724E49304600F04FF925
:1047D00000BFF5E770B505460E46681EC0EB001039
:1047E00000EB40004549503101EB0014444804609F
:1047F0004FF434720168454810F026FD701EC0EB7E
:10480000001000EB40003D49503101EB00144FF423
:10481000B4723E49204600F02AF93648B0F910003B
:10482000401EC0EB001000EB40003449503101EB5A
:104830000014334804602F49B1F94210344A52F849
:1048400021004FF4967108F035FE70BD70B54FF43D
:1048500034722D492B4810F0F7FC4FF434722A497A
:104860002A4810F0F1FC012427E00A2094FBF0F024
:104870003030264948710A2094FBF0F100FB1140CA
:104880003030224988710020C87132211F4808F059
:1048900011FE1E48FFF736FF601EC0EB001000EB54
:1048A00040001649503101EB00154FF4B47217491E
:1048B000284600F0DCF8601C84B21E2CD5DD0D48C3
:1048C000B0F910000A2190FBF1F030300D49487129
:1048D0000848B0F910000A2190FBF1F201FB120028
:1048E0003030084988710020C87170BDE45C01084F
:1048F0009C000020C8200020C859010800A8010819
:10490000A000002014210020145A0108E4230020F4
:10491000940000201FB50121084600F04BFC012146
:10492000042000F047FC4FF40070ADF80C00482064
:104930008DF80F0003A9364800F080F90921002006
:1049400000F092FA4FF40070019000208DF80800FA
:104950000C208DF8090000208DF80A0001A802F053
:1049600081F817208DF8000000208DF8010001204B
:104970008DF802008DF80300684602F0F8F8002474
:104980000AE00020234921F8140040F2DC502249BB
:1049900021F81400601CC4B20A2CF2DB1FBD7CB5E8
:1049A00004461E480078A04200D17CBD1B4804701C
:1049B0009CB14FF4007002F0CCF84FF400700090FE
:1049C00000208DF804000C208DF8050001208DF8E2
:1049D0000600684602F046F818E04FF400700090B8
:1049E00000208DF804000C208DF8050000208DF8C3
:1049F0000600684602F036F8002505E0002005496B
:104A000021F81500681CC5B20A2DF7DB00BFCCE702
:104A100000080140B4260020C8260020A400002081
:104A200001460888704730B503460C4615460022FB
:104A300007E01846FFF7F4FF24F812009B1C501CF7
:104A400082B2AA42F5DB30BD2DE9F04105460E46A3
:104A50001746002407E036F81410284602F057FAEB
:104A6000AD1C601C84B2BC42F5DBBDE8F0812DE9D1
:104A7000F05F80468A461746B8F1006F02D334488B
:104A8000804501D3BDE8F09FA8F1006B4FEA9B265B
:104A9000CBF34809C9F50074A74200DC3C4602F09C
:104AA000EEF84EE04FF0006101EB86208A142949B0
:104AB000FFF7B9FF00250BE009EB0500254931F8A8
:104AC00010004FF6FF71884200D003E0681C85B2E9
:104AD000A542F1DB00BFA5421BDA4FF0006101EBFC
:104AE000862002F011F9002508E03AF8150005EBE0
:104AF0000901184A22F81100681C85B2A542F4DBAE
:104B00004FF0006101EB86208A141249FFF79CFFE9
:104B100004E0224651464046FFF796FFA74200D1E7
:104B200010E0761C4FF000090AEB440A08EB440839
:104B3000381B87B2B7F5007F02DD4FF4007400E048
:104B40003C46AFE700BF02F0A6F800BF9AE70000BE
:104B500000000208DC26002006488047064800477F
:104B6000FEE7FEE7FEE7FEE7FEE7FEE7FEE7FEE71D
:104B7000FEE7FEE7F3340008ED30000810B5044608
:104B8000CC48844208D10121042000F02DFB0021F3
:104B9000042000F029FB46E0C748844208D10121E7
:104BA000082000F021FB0021082000F01DFB3AE066
:104BB000C248844208D10121102000F015FB0021D9
:104BC000102000F011FB2EE0BD48844208D10121E5
:104BD000202000F009FB0021202000F005FB22E04E
:104BE000B848844208D10121402000F0FDFA00219C
:104BF000402000F0F9FA16E0B348844208D10121C0
:104C0000802000F0F1FA0021802000F0EDFA0AE0A7
:104C1000AE48844207D10121801500F0E5FA002159
:104C2000A01500F0E1FA10BD10B50121084600F012
:104C3000DBFA0021012000F0D7FA10BD2DE9F04188
:104C4000024600250026002000230024002791F8BA
:104C500003C00CF00F0591F803C00CF0100CBCF170
:104C6000000F03D091F802C04CEA050591F800C08E
:104C7000BCF1000F31D0146800202BE04FF0010C84
:104C80000CFA00F3B1F800C00CEA03069E4220D1F2
:104C900083004FF00F0C0CFA03F7BC4305FA03FC3A
:104CA0004CEA040491F803C0BCF1280F06D14FF080
:104CB000010C0CFA00FCC2F814C00AE091F803C021
:104CC000BCF1480F05D14FF0010C0CFA00FCC2F802
:104CD00010C0401C0828D1D31460B1F800C0BCF14A
:104CE000FF0F34DD546800202EE000F1080C4FF077
:104CF000010808FA0CF3B1F800C00CEA03069E4262
:104D000021D183004FF00F0C0CFA03F7BC4305FAD6
:104D100003FC4CEA040491F803C0BCF1280F05D150
:104D200000F1080C08FA0CF8C2F8148091F803C0DE
:104D3000BCF1480F07D100F1080C4FF0010808FA48
:104D40000CF8C2F81080401C0828CED35460BDE88F
:104D5000F0814FF6FF710180022181700421C17042
:104D600070470246002093680B400BB1012000E021
:104D7000002070470146886880B2704702460020D4
:104D8000D3680B400BB1012000E0002070470146C2
:104D9000C86880B2704701617047416170470AB1CD
:104DA000016100E041617047C16070474FF480329B
:104DB0000A43826181618261826982697047024629
:104DC0000020434B18684FF68073184040EA0210E9
:104DD00008433F4B186070473E49C8617047F0B5C3
:104DE0000A46002300240021002500F00046B6F109
:104DF000004F02D1364EF16901E0354E7168C0F3C3
:104E0000034583B200F44016B6F5401F08D121F0E7
:104E100070612F4E766826F070662D4F7E6012E02E
:104E200000F48016B6F5801F06D1032606FA05F4B5
:104E3000A14341F0706106E0460D360103FA06F623
:104E4000B14341F0706122B1460D360103FA06F616
:104E5000314300F00046B6F1004F02D11C4EF16123
:104E600001E01B4E7160F0BD30B500228B071C0FB6
:104E70000F2303FA04F2164B08338C1053F8243036
:104E80009343134C08348D1044F8253023468C107E
:104E900053F824308C07240F00FA04F423430C4CFD
:104EA00008348D1044F8253030BD0A49DC310860E3
:104EB0007047000000080140000C01400010014054
:104EC0000014014000180140001C01400020014076
:104ED0000000014000002042DF48006840F001006F
:104EE000DD49086008464068DC490840DA49486006
:104EF00008460068DA490840D74908600846006853
:104F000020F4802008600846406820F4FE004860D5
:104F10004FF41F0088607047CF49096821F4803141
:104F2000CD4A11601146096821F480211160B0F565
:104F3000803F03D0B0F5802F0ED106E0C649096846
:104F400041F48031C44A116007E0C349096841F463
:104F5000A021C14A116000E000BF00BF704710B53A
:104F600001460022002300204A11012A02D1BA4C36
:104F7000236806E0022A02D1B74C236A01E0B64C4E
:104F8000636A01F01F02012494401C400CB101200F
:104F900000E0002010BD38B500200090002400255E
:104FA00000BF3120FFF7DBFF05460098401C009052
:104FB0000098B0F5A06F01D0002DF2D03120FFF79E
:104FC000CEFF08B1012400E00024204638BD014690
:104FD0000020A14A106820F0F80040EAC1001060EB
:104FE0007047A04908607047024600209A4B5868F5
:104FF00020F47C1042EA01031843974B5860704735
:1050000098490866704701460020934A506820F08E
:1050100003000843506070478F48406800F00C0060
:105020007047014600208C4A506820F0F000084389
:105030005060704701460020874A506820F4E060C5
:1050400008435060704701460020834A506820F4AE
:10505000605040EAC1005060704729B17E4A527AE0
:1050600002437D4B5A7204E07B4A527A82437A4B68
:105070005A7270477B49D83108607047014600205A
:10508000754A506820F44040084350607047002142
:10509000714A20321170704A82F82010012802D023
:1050A00004280AD104E001216B4A2032117005E086
:1050B0000521694A2032117000E000BF00BF70472F
:1050C0006949086070476449096A0143624A11628C
:1050D0007047654944390860704730B500210022A7
:1050E000002400235C4D6D6805F00C0121B10429FA
:1050F00005D0082923D105E05C4D056022E05B4D19
:1051000005601FE0544D6D6805F47012524D6D68D6
:1051100005F48034022505EB92421CB9544D5543E9
:1051200005600BE04C4D6D6805F400351DB1504D28
:105130005543056002E04D4D5543056002E04B4D7F
:10514000056000BF00BF444D6D6805F0F00109091E
:10515000484D6B5C0568DD4045603F4D6D6805F46A
:10516000E061090A434D6B5C4568DD4085603A4D5E
:105170006D6805F46051C90A3E4D6B5C4568DD40C1
:10518000C560354D6D6805F44041890B3A4D6B5C47
:10519000C568B5FBF3F5056130BD29B12E4A5269EA
:1051A00002432D4B5A6104E02B4A526982432A4B39
:1051B0005A61704729B1284A92690243264B9A6185
:1051C00004E0254A92698243234B9A61704729B1D2
:1051D000214AD2690243204BDA6104E01E4AD269B7
:1051E00082431D4BDA61704729B11B4AD2680243E2
:1051F000194BDA6004E0184AD2688243164BDA6031
:10520000704729B1144A12690243134B1A6104E032
:10521000114A12698243104B1A6170471249403992
:10522000086070470F49C86470470B49C8717047E0
:105230000948406A40F0807007494862704701465B
:105240000020054A92680A400AB1012000E00020CF
:105250007047014988727047001002400000FFF853
:10526000FFFFF6FE000042428004424200127A0034
:1052700000093D00A5000020B500002010B504463F
:10528000BE48844208D101218014FFF7ADFF002100
:10529000A014FFF7A9FF16E0B948844208D1012104
:1052A0000014FFF7AEFF00212014FFF7AAFF0AE069
:1052B000B448844207D10121C013FFF7A2FF0021A7
:1052C000E013FFF79EFF10BD10B50022028802F424
:1052D00041520B884C8823438C882343CC8823433A
:1052E0000C8923434C8923438C892343CC89234352
:1052F0001A430280838B4FF2FF74234083830B8A0F
:10530000038210BD2DE9F04F85B005460C464FF0E5
:10531000000902274FF000084FF0010B0026B246AB
:10532000A88B4FF240010840A88302202884B5F8DA
:105330001C90A068022801D100BF38E0A08810B9F5
:105340004FF0010B01E04FF0020B8D48854200D178
:1053500000E000BF6846FFF7C0FEDDF800A0E0886F
:10536000B0F5007F0AD14FEA1A2000EB8000400020
:10537000A168B0FBF1F0401D86B20BE04FEA4B1084
:10538000BAFBF0F000EB80004000A168B0FBF1F048
:10539000401D86B20A20B6FBF0F606F00108A6EB27
:1053A0000800C0F34F074FF6FF7000EA0828022FED
:1053B00001DBFF2F02DD02274FF00008E08840EA02
:1053C000080038432884A088A189084361880843DD
:1053D0002188084340F4006040EA0909A5F81C90C0
:1053E00005B0BDE8F08F0021018041808180C1803F
:1053F000018141818181C1810721018270470021A2
:10540000018041808180C1800221816000218181F1
:10541000704721B1028842F04002028004E0028815
:105420004FF6BF731A400280704721B1828B42F45D
:105430008062828304E0828B4FF6FF331A408283BE
:10544000704730B5002400230C110125A540ABB2F4
:105450001AB185881D43858002E085889D4385803B
:1054600030BD1AB183880B43838002E083888B436D
:1054700083807047818170470146888970474FF665
:10548000FF62914204D0028842F48072028004E0FC
:1054900002884FF6FF631A400280704721B182886C
:1054A00042F00402828004E082884FF6FB731A40C7
:1054B0008280704702884FF2FF731A400280028890
:1054C0000A4302807047018841F48051018070478F
:1054D00021B1028842F40052028004E002884DF6B5
:1054E000FF731A400280704702460020012901D054
:1054F000108B00E0908A70470146088A7047B1F52A
:10550000804F04D1028842F48042028004E0028885
:105510004BF6FF731A400280704702460020138941
:105520000B400BB1012000E000207047CA4302810C
:105530007047F0B50246002000240023002501F04A
:105540000F070126BE40B4B20B1101269E40B3B234
:10555000968806EA03051689264016B10DB101208A
:1055600000E00020F0BD10B5002201F00F0401237F
:10557000A3409AB2D343038110BD00000030014024
:1055800000380040003C004001684FF6FE721140B8
:1055900001600021016041608160C1608D498842E5
:1055A00008D18C490839496841F00F01894A083A05
:1055B00051608AE087491431884208D18549083909
:1055C000496841F0F001834A083A51607DE0814921
:1055D0002831884208D17F490839496841F470610F
:1055E0007C4A083A516070E07A493C31884208D1DF
:1055F00078490839496841F47041764A083A51605F
:1056000063E074495031884208D1724908394968C9
:1056100041F470216F4A083A516056E06D49643197
:10562000884208D16B490839496841F47001694AD8
:10563000083A516049E067497831884208D16549A4
:105640000839496841F07061624A083A51603CE0AB
:105650006149884206D1011F096841F00F01021F0C
:10566000116032E05C491431884208D15A49091F5F
:10567000096841F0F001584A121F116025E05649AF
:105680002831884208D15449091F096841F47061E2
:10569000514A121F116018E04F493C31884208D12D
:1056A0004D49091F096841F470414B4A121F1160AE
:1056B0000BE049495031884207D14749091F096821
:1056C00041F47021444A121F1160704710B5002246
:1056D000026847F6F0739A430C6A8B6823430C699F
:1056E00023434C6923438C692343CC6923434C6A8D
:1056F00023438C6A23431A430260CB6843600B68E0
:1057000083604B68C36010BD00210160416081600F
:10571000C160016141618161C16101624162816277
:10572000704721B1026842F00102026004E00268A1
:105730004FF6FE731A40026070471AB103680B43BC
:10574000036002E003688B43036070474160704769
:105750000146486880B2704701460020002201F0EF
:1057600080531BB11C4B083B1A6802E0194B083BE5
:105770001A6802EA01030BB1012000E00020704723
:1057800000F0805119B11449091F086002E0114965
:1057900008394860704701460020002201F080531C
:1057A0001BB10D4B083B1A6802E00A4B083B1A6814
:1057B00002EA01030BB1012000E00020704700F075
:1057C000805119B10449091F086002E001490839F4
:1057D00048607047080002400804024010B50446C3
:1057E000FA48844208D101214015FFF7FDFC002151
:1057F0006015FFF7F9FC17E0F548844208D1012154
:105800000015FFF7F1FC00212015FFF7EDFC0BE080
:10581000F048844208D10121C803FFF7E5FC0021CC
:105820004FF40040FFF7E0FC10BD30B50246002009
:1058300000235068E84C20400D790C6844EA0524A8
:10584000204350609068E54C2040D1E902542C433D
:105850004D7944EA450420439060D06A20F47000FA
:105860000C7C641EE4B2234340EA0350D06230BD96
:1058700000210160017141718160C16001210174E9
:10588000704721B1826842F00102826003E08268C1
:1058900022F001028260704721B1826842F4807276
:1058A000826003E0826822F480728260704710B5E3
:1058B0000023CBB21AB144681C43446002E0446840
:1058C0009C43446010BD816841F0080181607047CD
:1058D000014600208A6802F008020AB1012000E0B7
:1058E00000207047816841F00401816070470146E3
:1058F00000208A6802F004020AB1012000E00020C2
:10590000704721B1826842F4A002826003E082689D
:1059100022F4A00282607047014600208A6802F4E7
:1059200080020AB1012000E00020704710B50A464D
:1059300000210023416821F46041531E41EA4331B4
:10594000416010BD21B1426842F40062426003E050
:10595000426822F4006242607047F0B504460D468A
:1059600000200021092D11DDE068A5F10A0606EBF3
:105970004607072606FA07F18843A5F10A0606EB53
:10598000460603FA06F10843E0600CE0206905EBE7
:105990004507072606FA07F1884305EB450603FA93
:1059A00006F108432061072A0FDA606B561E06EBEA
:1059B00086071F2606FA07F18843561E06EB860661
:1059C00005FA06F10843606322E00D2A0FDA206B26
:1059D000D61F06EB86071F2606FA07F18843D61F57
:1059E00006EB860605FA06F10843206310E0E06A3C
:1059F000A2F10D0606EB86071F2606FA07F188437B
:105A0000A2F10D0606EB860605FA06F10843E062F0
:105A1000F0BD21B1826842F48012826003E08268A6
:105A200022F48012826070470146C86C80B27047D1
:105A300066484C300068704721B1426842F4806289
:105A4000426003E0426822F480624260704721B104
:105A5000426842F48052426003E0426822F480527D
:105A6000426070470A460021816821F4E0411143F9
:105A70008160704721B1826842F40042826003E095
:105A8000826822F400428260704721B1826842F449
:105A90000212826003E0826822F402128260704780
:105AA000014600208A6802F400120AB1012000E0D9
:105AB00000207047F0B5044615460020002200265D
:105AC000092911DDE068A1F10A0707EB470C072758
:105AD00007FA0CF29043A1F10A0707EB470703FA14
:105AE00007F21043E0600CE0206901EB410C07274E
:105AF00007FA0CF2904301EB410703FA07F2104357
:105B00002061A06BC0F30156EF1C06F1010CA7EB5E
:105B10000C0707EB870C1F2707FA0CF29043EF1CCA
:105B200006F1010CA7EB0C0707EB870701FA07F258
:105B30001043A063F0BD10B50A4600210023816B1D
:105B400021F44011531E41EA0351816310BD08B591
:105B5000002300930090009B0B440093009B1A606D
:105B600008BD08B5024600200090009201F128000F
:105B7000009B184400900098006880B208BD0A4657
:105B800000214168164B1940114341607047416242
:105B9000826270470A460021416821F01F011143CB
:105BA0004160704740B109490831096841F400017A
:105BB000064A0832116007E004490831096821F4F7
:105BC0000001024A083211607047000000240140C1
:105BD00000280140003C0140FFFEF0FFFDF7F1FF0F
:105BE000FFFD3FFF0246002013680B400BB1012070
:105BF00000E000207047CA430260704770B502465B
:105C00000020002300240B125568CEB205EA0604DA
:105C100015681D4015B10CB1012000E0002070BDD9
:105C200000220A12D34303607047000010B50446F7
:105C3000FE48844208D10121C014FFF7D5FA0021A3
:105C4000E014FFF7D1FAC4E0B4F1804F08D101218C
:105C50000846FFF7D6FA00210120FFF7D2FAB8E094
:105C6000F348844208D101210220FFF7CAFA00213B
:105C70000220FFF7C6FAACE0EE48844208D10121C9
:105C80000420FFF7BEFA00210420FFF7BAFAA0E0D3
:105C9000E948844208D101210820FFF7B2FA002127
:105CA0000820FFF7AEFA94E0E448844208D10121CD
:105CB0001020FFF7A6FA00211020FFF7A2FA88E0D3
:105CC000DF48844208D101212020FFF79AFA002101
:105CD0002020FFF796FA7CE0DA48844208D10121BF
:105CE0004014FFF781FA00216014FFF77DFA70E09D
:105CF000D548844209D10121C804FFF775FA002173
:105D00004FF40020FFF770FA63E0D048844209D1D5
:105D100001210805FFF768FA00214FF48010FFF712
:105D200063FA56E0CA48844209D101214805FFF7C9
:105D30005BFA00214FF40010FFF756FA49E0C5481E
:105D4000844208D101214020FFF75BFA0021402066
:105D5000FFF757FA3DE0C048844208D10121802076
:105D6000FFF74FFA00218020FFF74BFA31E0BB48E4
:105D7000844208D101218015FFF743FA0021A015C4
:105D8000FFF73FFA25E0B648844209D10121080413
:105D9000FFF72AFA00214FF48030FFF725FA18E0C8
:105DA000B048844209D101214804FFF71DFA0021BF
:105DB0004FF40030FFF718FA0BE0AB48844208D1EB
:105DC00001218804FFF710FA00214FF48020FFF72B
:105DD0000BFA10BD00220288944B98420ED0994BCA
:105DE00098420BD0B0F1804F08D0914B984205D02B
:105DF000904B984202D0904B984204D14FF68F734B
:105E00001A404B881A438D4B984207D08C4B9842CE
:105E100004D04FF6FF431A40CB881A4302808B8888
:105E200083850B880385814B98420BD0854B984224
:105E300008D08B4B984205D08A4B984202D08A4BAF
:105E4000984201D10B7A038601238382704770B593
:105E5000002400220023058C4FF6FE763540058491
:105E6000028C8388048B4FF68F752C40B51E2C4016
:105E70000D882C43751E2A400D892A434D882A43DC
:105E80006A4DA8420BD06F4DA84208D0744DA8426D
:105E900005D0744DA84202D0734DA84213D14FF6DD
:105EA000F7752A404D892A434FF6FB752A408D88A5
:105EB0002A434FF6FF652B404FF6FF552B408D8947
:105EC0002B43CD892B4383800483CD888586028430
:105ED00070BD70B5002400220023058C4FF6EF76CC
:105EE00035400584028C8388048B48F6FF752C406E
:105EF0004FF6FF452C400D884FF6FF7606EA052544
:105F00002C434FF6DF752A400D8906EA05152A4312
:105F10004D8806EA05152A43444DA84202D0494D52
:105F2000A8421DD14FF67F752A404D894FF6FF7666
:105F300006EA05152A434FF6BF752A408D8806EA02
:105F400005152A434FF6FF352B404FF2FF752B40C6
:105F50008D8906EA85052B43CD8906EA85052B4305
:105F600083800483CD880587028470BD70B50024CA
:105F700000220023058C4FF6FF6635400584028C15
:105F80008388848B4FF68F752C404FF6FC752C4020
:105F90000D882C434FF6FF552A400D894FF6FF76AA
:105FA00006EA05252A434D8806EA05252A431F4DA2
:105FB000A84202D0234DA8421DD14FF2FF752A40BE
:105FC0004D894FF6FF7606EA05252A434FF6FF3541
:105FD0002A408D8806EA05252A434EF6FF752B4098
:105FE0004DF6FF752B408D8906EA05152B43CD89AB
:105FF00006EA05152B4383808483CD888587028438
:1060000070BD70B5002200230024058C4EF6FF768B
:1060100035400584038C8488828B48F6FF752A40BE
:106020004FF6FF452A400D8820E00000002C01407B
:106030000004004000080040000C00400010004038
:106040000014004000340140004C01400050014069
:106050000054014000180040001C00400020004097
:106060000040014000440140004801404FF6FF76E7
:1060700006EA05252A434DF6FF752B400D8906EAF1
:1060800005352B434D8806EA05352B43FA4DA842CA
:1060900002D0FA4DA84208D14BF6FF752C408D89ED
:1060A0004FF6FF7606EA85152C4384808283CD88DF
:1060B000A0F84050038470BD828B4FF2FF331A402A
:1060C0008283828B4FF6FF7303EA01231A43828394
:1060D0007047F0B50C461546002200210026078CBB
:1060E0004EF6FF7C07EA0C070784828B018C4FF683
:1060F000FF7707EA043640F6FF473A404FF6FF774E
:1061000007EA05273A434FF6FF7707EA03373A4392
:10611000D94FB8420ED0D94FB8420BD0B0F1804F12
:1061200008D0D74FB84205D0D64FB84202D0D64F8C
:10613000B84206D14DF6FF77394046F480573943CF
:1061400005E047F6FF57394044F4805739438283CE
:106150000184F0BD828B4FF6F3731A408283828BE9
:106160000A4382837047F0B50C4615460022002191
:106170000026078C4FF6FF6C07EA0C070784828B1A
:10618000018C4FF6FF7707EA04264FF60C773A406A
:106190004FF6FF7707EA03172F433A43B64FB8424B
:1061A0000ED0B64FB8420BD0B0F1804F08D0B44FEC
:1061B000B84205D0B34FB84202D0B34FB84206D16F
:1061C0004FF6FF57394046F48077394305E04FF2E8
:1061D000FF57394044F48077394382830184F0BD0E
:1061E000028B4FF2FF331A400283028B4FF6FF738C
:1061F00003EA01231A4302837047F0B50C461546A3
:10620000002200210026078C4FF6EF7C07EA0C07DE
:106210000784028B018C4FF6FF7707EA041640F6DD
:10622000FF473A404FF6FF7707EA03373A434FF606
:10623000FF7707EA05273A438F4FB8420ED08F4FBA
:10624000B8420BD0B0F1804F08D08D4FB84205D086
:106250008C4FB84202D08C4FB84206D14FF6DF7750
:10626000394046F01007394305E04FF65F77394073
:1062700044F01007394302830184F0BD028B4FF6CE
:10628000F3731A400283028B0A4302837047F0B50E
:106290000C46154600220021068C4FF6FE773E4044
:1062A0000684028B018C4FF60C7632407E1C06EA87
:1062B00003162E433243704EB0420ED06F4EB042A2
:1062C0000BD0B0F1804F08D06D4EB04205D06D4E6E
:1062D000B04202D06C4EB04206D14FF6FD7631404E
:1062E00044F00106314305E04FF6F576314044F0C5
:1062F0000106314302830184F0BD70B505460C46AA
:106300005D4885420ED05D4885420BD0B5F1804F87
:1063100008D05B48854205D05A48854202D05A4889
:10632000854200D100E000BF208850B92389A288AF
:1063300061882846FFF7ABFFE1882846FFF79EFFFC
:1063400025E0208804280AD12389A288618828466C
:10635000FFF753FFE1882846FFF742FF17E0208848
:1063600008280AD12389A28861882846FFF7FBFE06
:10637000E1882846FFF7EEFE09E02389A2886188BC
:106380002846FFF7A6FEE1882846FFF795FE70BD78
:106390002DE9F04105460C4600260127608808B922
:1063A000022600E00026A088012801D1022700E093
:1063B00001272088A0B92389A28861882846FFF791
:1063C00066FFE1882846FFF759FF23893A463146A0
:1063D0002846FFF712FFE1882846FFF701FF13E088
:1063E0002389A28861882846FFF707FFE1882846AD
:1063F000FFF7F6FE23893A4631462846FFF747FF66
:10640000E1882846FFF73AFFBDE8F0810A884B880B
:106410001A438B881A43CB881A430B891A434B893A
:106420001A438B891A43A0F8442070474FF6FF7136
:10643000818000210180C18041800172704700216C
:10644000018041808180C180018141818181C18140
:106450007047002101804180012181800021C1809D
:10646000018170470021018041808180C1800181CC
:106470004181818170470000002C014000340140BF
:106480000004004000080040000C004021B10288D8
:1064900042F00102028004E002884FF6FE731A40C7
:1064A0000280704731B1B0F8442042F40042A0F8B5
:1064B000442005E0B0F84420C2F30E02A0F84420C6
:1064C00070471AB183890B43838102E083898B4330
:1064D000838170478182704741EA0203A0F8483007
:1064E00070471AB183890B43838102E083898B4310
:1064F0008381704701894FF6F8721140018170471E
:106500000A46002101894FF68F731940114301811A
:10651000704730B504460D4629462046FFF7F0FF88
:10652000208940F00700208130BD2DE9F04104466C
:106530000D4616461F46602D06D13B4601223146C8
:106540002046FFF75AFE05E03B4601223146204631
:10655000FFF79DFE29462046FFF7D2FF208940F035
:1065600007002081BDE8F08130B50C46002101898B
:10657000C9B24FF6FF7505EA0325154325432943A4
:10658000018130BD2DE9F04105460E46174698467B
:10659000002443463A4631462846FFF7E5FF2C895A
:1065A0004FF6F870044044F007044FF68F70044033
:1065B00044F070042C81BDE8F081F0B504460D462E
:1065C00016461F463B46324629462046FFF7CCFF7B
:1065D000208940F480402081F0BD0185828270478F
:1065E0000A46002101884FF68F731940114301803C
:1065F0007047F0B50C4615461E46002100220023C8
:106600000189028B038C4FF6F877394021434FF60E
:10661000FC473A4040F201173A434FF6DD773B40E2
:106620004FF6FF7707EA06172F433B4301810283AA
:106630000384F0BD0A460021018B4FF68F73194089
:106640001143018370470A460021018B48F6FF730E
:1066500019404FF6FF7303EA022319430183704781
:106660000A460021818B4FF68F73194011438183B5
:1066700070470A460021818B48F6FF7319404FF698
:10668000FF7303EA022319438183704721B1028813
:1066900042F08002028004E002884FF67F731A40C5
:1066A0000280704721B1828842F00402828004E0B7
:1066B00082884FF6FB731A408280704721B182882E
:1066C00042F00802828004E082884FF6F7731A4095
:1066D0008280704721B1828842F00102828004E00A
:1066E00082884FF6FE731A40828070470A46002166
:1066F000018B4FF6F77319401143018370470A4627
:106700000021018B4FF2FF7319404FF6FF7303EA2C
:1067100002231943018370470A460021818B4FF6FB
:10672000F77319401143818370470A460021818B1A
:106730004FF2FF7319404FF6FF7303EA0223194328
:10674000818370470A460021018B4FF6FB73194085
:106750001143018370470A460021018B4FF6FF3336
:1067600019404FF6FF7303EA022319430183704770
:106770000A460021818B4FF6FB7319401143818338
:1067800070470A460021818B4FF6FF3319404FF6C0
:10679000FF7303EA02231943818370470A460021ED
:1067A000018B4FF67F7319401143018370470A46EE
:1067B0000021018BC1F30E014FF6FF7303EA0223A0
:1067C0001943018370470A460021818B4FF67F737E
:1067D00019401143818370470A460021818BC1F320
:1067E0000E014FF6FF7303EA0223194381837047BA
:1067F0000A460021018C4FF6FD73194011430184B4
:1068000070470A460021018C4FF6F7731940114377
:10681000018470470A460021018C4FF6DF7319404E
:106820004FF6FF7303EA02131943018470470A46C7
:106830000021018C4FF67F7319404FF6FF7303EA76
:1068400002131943018470470A460021018C4FF658
:10685000FF5319404FF6FF7303EA022319430184E3
:1068600070470A460021018C4FF2FF7319404FF622
:10687000FF7303EA02231943018470470A4600218B
:10688000018C4DF6FF7319404FF6FF7303EA023394
:1068900019430184704730B5002301248C40A3B212
:1068A000048C9C430484048C02FA01F5ADB22C43A1
:1068B000048430BD30B5002304248C40A3B2048C82
:1068C0009C430484048C02FA01F5ADB22C43048489
:1068D00030BD70B50346002000241846183001254D
:1068E0008D40ACB21D8CA5431D8409B1082909D186
:1068F00000EB6100056825F070050560056815432B
:1069000005600EE00D1FC5F34E052844056825F40B
:10691000E045056005684FF6FF7606EA0226354336
:10692000056070BD21B1028842F00202028004E0DD
:1069300002884FF6FD731A400280704721B1028829
:1069400042F00402028004E002884FF6FB731A4012
:106950000280704721B1828842F08002828004E088
:1069600082884FF67F731A408280704702884FF604
:10697000F7731A40028002880A43028070478288B7
:106980004FF68F731A40828082880A438280704754
:1069900002894FF6F8731A40028102890A43028184
:1069A000704702894FF67F731A40028102890A43B9
:1069B0000281704781847047818570478186704766
:1069C0000187704781877047A0F8401070470288A0
:1069D0004FF6FF431A40028002880A430280704744
:1069E0000146888E70470146088F70470146888FA0
:1069F00070470146B1F8400070470146888C7047E7
:106A00000146088D704702460020138A0B400BB1E7
:106A1000012000E000207047CA430282704730B571
:106A20000246002000230024158A05EA0103958907
:106A300005EA010413B10CB1012000E0002030BDD3
:106A4000CA43028270470000002044490860091DC3
:106A50000860091D0860091D086041483F4914315C
:106A60000860704700213D498279002A3AD00A46E1
:106A7000126803689A430B461A600A1D126803687D
:106A80009A430B1D1A60027911440A6803681A437D
:106A90000A60324A0832126803689A432F4B08335F
:106AA0001A601A1D126803689A432C4B0C331A6043
:106AB0004279102A0ED11A1F126803681A43274B15
:106AC00008331A601A1D126803681A43234B0C33EB
:106AD0001A600DE02149427911440A6803681A439B
:106AE0000A6005E0027911440A6803689A430A6063
:106AF00070470021016001710C21417100218171F9
:106B000070471649103109680143144A1032116068
:106B1000704701460020114A143212680A400AB137
:106B2000012000E0002070470C49143108607047D4
:106B3000014600200022094B1B6803EA0102074BB3
:106B400014331B680B4013B10AB1012000E0002090
:106B5000704702491431086070470000000401408A
:106B6000FFFF0F0031490143314A1160704770B592
:106B7000002100230F22C47804B32D4C246804F4B0
:106B8000E064C4F5E064210AC1F10403CA4044781A
:106B900004FA03F18478144021430901254C067856
:106BA000A155047804F01F050124AC4005786D114F
:106BB000AD0005F1E025C5F8004109E0047804F0D6
:106BC0001F050124AC401C4D0678761145F826407F
:106BD00070BD1A4A0A400243154B1B1F1A607047CA
:106BE00039B1134A121D12680243114B1B1D1A6062
:106BF00006E00F4A121D126882430D4B1B1D1A60DE
:106C00007047042808D14FF0E021096941F00401E0
:106C10004FF0E022116107E04FF0E021096921F017
:106C200004014FF0E0221161704700000000FA05F6
:106C30000CED00E000E400E080E100E080FFFF1FD9
:106C400001460020FE4A106800F03800084310603A
:106C50007047FB49096821F00801F94A11601146A3
:106C60000968014311607047F549096821F0100176
:106C7000F34A116011460968014311607047F148F9
:106C8000EF494860F04848607047EE48EC4948607A
:106C9000ED4848607047EA48006940F08000E849E4
:106CA00008617047E648006940F08000E4490861E7
:106CB00070470420E249C96801F0010109B10120CF
:106CC0000EE0DF49C96801F0040109B1022007E0C4
:106CD000DB49C96801F0100109B1032000E004207C
:106CE000704700B502460423FFF7E3FF034603E0C5
:106CF000FFF7DFFF0346521E012B01D1002AF7D117
:106D000002B90523184600BD30B5044604254FF4EA
:106D10003020FFF7E6FF0546042D17D1C84800696B
:106D200040F00200C649086108464461006940F02D
:106D3000400008614FF43020FFF7D3FF0546C048FC
:106D4000006941F6FD710840BD490861284630BD23
:106D500010B504244FF43020FFF7C3FF0446042C81
:106D600016D1B748006940F00400B54908610846EB
:106D7000006940F0400008614FF43020FFF7B1FF98
:106D80000446AF48006941F6FB710840AC49086110
:106D9000204610BD00B502460423FFF78AFF0346D4
:106DA00003E0FFF786FF0346521E012B01D1002AA4
:106DB000F7D102B90523184600BD10B504244FF4DD
:106DC0003020FFF7E7FF0446042C16D19C480069E9
:106DD00040F004009A4908610846006940F040000C
:106DE00008614FF43020FFF7D5FF0446944800694E
:106DF00041F6FB71084092490861204610BD002011
:106E00008F49C96901F0020109B1012000E00020A9
:106E1000704730B5A5250424FFF7F1FF00B1002528
:106E20004FF43020FFF75DFF0446042C3AD185482B
:106E300083498860844888600846006940F02000E3
:106E400008610846006940F0400008614FF43020B6
:106E5000FFF747FF0446042C1BD17948006941F62F
:106E6000DF710840764908610846006940F010006B
:106E7000086176480580E002FFF733FF0446052CE1
:106E800010D06F48006941F6EF7108406C49086105
:106E900008E0052C06D06A48006941F6EF71084009
:106EA00067490861204630BD78B506460C46042582
:106EB00000200090E802FFF714FF0546042D24D1BE
:106EC0005F48006940F001005D4908613480E802D4
:106ED000FFF707FF0546042D10D1B01C0090200CD1
:106EE00000990880E802FFF7FCFE05465448006957
:106EF00041F6FE7108405249086106E050480069B9
:106F000041F6FE7108404E490861284678BD70B5CB
:106F100004460D460426F002FFF7E3FE0646042E63
:106F200011D14748006940F00100454908612580BA
:106F3000F002FFF7D6FE06464148006941F6FE71B1
:106F400008403F490861304670BD70B505460E46A1
:106F50000424E002FFF7C5FE0446042C17D139488B
:106F600037498860384888600846006940F010005A
:106F700008612E80E002FFF7B4FE0446052C06D01F
:106F80002F48006941F6EF7108402D4908612046FD
:106F900070BD2DE9F04304464FF6FF763746B04604
:106FA000B1460425E443E6B2C4F30727C4F3074817
:106FB0004FEA1469E802FFF794FE0546042D49D113
:106FC00020481F498860204888600846006940F0D2
:106FD00010000861FF2E06D01C4808300680E80229
:106FE000FFF77FFE0546042D08D1FF2F06D0174876
:106FF0000A300780E802FFF774FE0546042D0AD127
:10700000B8F1FF0F07D011480C30A0F80080E8025B
:10701000FFF767FE0546042D0AD1B9F1FF0F07D02F
:107020000A480E30A0F80090E802FFF75AFE054625
:10703000052D0FD00248006941F6EF71084007E0C6
:107040000020024023016745AB89EFCD00F8FF1F08
:10705000664908612846BDE8F08330B5054604243A
:107060004FF43020FFF73DFE0446042C41D1604828
:107070005E4988605F4888600846006940F02000EB
:1070800008610846006940F0400008614FF4302074
:10709000FFF727FE0446042C22D15448006941F62C
:1070A000DF710840514908610846006940F010004E
:1070B00008611DB100205049088002E0A5204E491A
:1070C00008804FF43020FFF70CFE0446052C10D04A
:1070D0004648006941F6EF7108404449086108E0FC
:1070E000052C06D04148006941F6DF7108403F4950
:1070F0000861204630BDF0B505460E46174604240B
:107100003B483A4988603B488860E002FFF7E9FD68
:107110000446042C19D13548006940F01000334969
:10712000086147F0F800304328433349891C088040
:10713000E002FFF7D6FD0446052C06D02B48006977
:1071400041F6EF710840294908612046F0BD274803
:10715000C069800870472548006A704700202349AD
:10716000096801F0200109B1012000E0002070470A
:1071700029B11E4A126902431C4B1A6104E01B4AE2
:1071800012698243194B1A61704701460020012998
:1071900008D1164AD26902F001020AB1012008E0C2
:1071A000002006E0114AD2680A400AB1012000E03E
:1071B000002070470D49C860704704200B49C9681A
:1071C00001F0010109B101200EE00849C96801F090
:1071D000040109B1022007E00449C96801F0100167
:1071E00009B1032000E004207047000000200240A5
:1071F00023016745AB89EFCD00F8FF1F10B50446AA
:107200002CB90120F94909680882002010BDF8490D
:10721000096808688047F54800680A30F6E710B545
:10722000F2480068C078F3494978884213DCEF4897
:107230000068807878B9ED480068808858B9EB48D4
:107240000068C078E94909688872E94909684868AE
:107250008047002010BD0220FCE710B504462CB981
:107260000120E24909680882002010BDE049096850
:1072700088688047DD4800680C30F6E710B5DB4BC6
:107280001B68D978D94B1B685879DB4B1B689A6906
:1072900090470446D5480068807AE8B13CB9D348A5
:1072A0000068007918B9D1480068807808B10220D8
:1072B00010BD8CB9CE490968C8688047CB480068C2
:1072C0004079CA490968C872C8480068C078C74987
:1072D000096808730020EBE70220E9E710B50446CF
:1072E0002CB90220C14909680882002010BD002085
:1072F000C2490880BD480068007800F07F00E0B90E
:10730000BA490968487A00F0200129B1BB490978D7
:1073100041F00201B94A117000F0400131B1B749A2
:10732000097801F0FE01B54A117005E0B34909780A
:1073300041F00101B14A11703AE0AC4800680078B0
:1073400000F07F00012801D1AC48CFE7A7480068D2
:10735000007800F07F00022828D1A44A12685179F1
:1073600001F00F0001F080027AB1A54B03EB80021F
:10737000D2F8002C02F03002102A16D19F4A12785F
:1073800042F001029D4B1A700FE09D4B03EB80020F
:10739000D2F8002C02F44052B2F5805F05D1974A32
:1073A000127842F00102954B1A7001E000209DE72F
:1073B0008F49096808698047904897E72DE9F047A9
:1073C0008A480068007800F07F08B8F1000F0AD101
:1073D00086480068407A00F0DF00844909684872F6
:1073E0000020BDE8F087B8F1020F7DD17F4800682A
:1073F000408818B97D480068007908B10220F0E79C
:10740000DFF8F09179480068477927F080052C462D
:1074100076480068407900F0800038B1784901EB87
:107420008400D0F8000C00F0300606E0744901EB4F
:107430008400D0F8000C00F4405699F80000A842EF
:1074400004D91EB169480068807A08B90220C8E7EB
:1074500007F0800080B16A4901EB8400D0F8000C8D
:1074600000F03000102843D1E0B201F031F8E0B272
:10747000302100F0DAFE3BE0614901EB8400D0F8F6
:10748000000C00F44050B0F5805F31D1C4B95D4AC2
:1074900092F82C10E0B201F0A6F8594A02EB8401F0
:1074A000D1F8001C4BF68F7201EA020080F4805084
:1074B00080F40050524A02EB8401C1F8000C17E03E
:1074C000E0B200F0EEFF4E4A02EB8401D1F8001C5E
:1074D0004BF68F7201EA020080F4805080F4005075
:1074E000474A02EB840100E008E0C1F8000C00BF4D
:1074F0003F49096848698047002072E700BF0220C1
:107500006FE72DE9F04139480068467926F0800799
:107510003C4636480068407900F0800038B1384970
:1075200001EB8400D0F8000C00F0300506E034498F
:1075300001EB8400D0F8000C00F440552D48007891
:10754000A04208D929480068408820B91DB12748C1
:107550000068807A10B90220BDE8F08106F0800052
:1075600080B1274A02EB8401D1F8001C48F6BF72B3
:1075700001EA020080F01000214A02EB8401C1F808
:10758000000C10E01E4A02EB8401D1F8001C4BF6FF
:107590008F7201EA020080F48050194A02EB8401E4
:1075A000C1F8000C00BF12490968886980470020B3
:1075B000D2E710B50D480068407A40F020000B4932
:1075C000096848720A490968C8698047002010BDE7
:1075D00010B5024605480068438AAAB98888C01ACF
:1075E000024C24682082002010BD0000C40000204E
:1075F000D0000020FC010020C8000020BA000020BC
:10760000005000400002002008681844ECE72DE913
:10761000F041FE48006800F110042688A068C0B15F
:10762000BEB1A588B54200D93546A8B2A168884741
:1076300007462088401B2080608828446080002006
:1076400000F0A3FF8046AAB24146384600F088FD0C
:1076500000BF208850B14FF44050ED490880002110
:10766000084600F09EFF3020EA4908802088A18863
:10767000884204DB0320E5490968087218E0208885
:10768000002804DD0520E1490968087210E020881F
:1076900070B90620DD49096808720021DE480068DB
:1076A00080B2801CDD4A42F810103020D949088091
:1076B000BDE8F0812DE9F047D448006800F11005DD
:1076C0002E88D2480068077AD6B9042F18D1D4483A
:1076D000007801280FD10021CF48006880B2801CBB
:1076E000CE4A42F810103020CA49088000BF00205E
:1076F000CB49087003E007271020C649088027E01F
:10770000AC88A64201D8042000E002200746B4421B
:1077100000D93446A0B2A96888478046002000F00E
:1077200029FF8146A2B24946404600F0FFFCA1B2C3
:10773000002000F036FF2888001B2880688820443D
:1077400068803020B34908800002B149088000BF3A
:10775000AE4909680F72BDE8F08770B50226AB48E4
:1077600000684478A9480068007800F07F0000288D
:107770004AD1092C03D1FFF752FD064665E0052CDE
:1077800014D1A2480068C0787F280BDC9F480068AD
:10779000807838B99D480068808818B99B4800688F
:1077A000807A08B108256BE000264EE0032C14D146
:1077B00096480068C07801280DD1944800688088F8
:1077C00048B992480068407A00F0200018B1FFF7ED
:1077D000F0FE064639E0022637E0012C35D18B4811
:1077E0000068C07801280DD188480068808848B9B1
:1077F00086480068407A00F0200018B1FFF7DEFDEF
:10780000064622E0022620E080480068007800F06A
:107810007F00012805D10B2C17D1FFF72FFD06465D
:1078200013E07A480068007800F07F0002280BD14E
:10783000012C03D1FFF7C2FD064606E0032C04D15C
:10784000FFF75FFE064600E002264EB1E0B2754A41
:107850001268516988470646032E01D109250FE0B9
:107860000EB108250CE0062500216B48006880B2A7
:10787000801C6A4A42F8101030206649088000BF18
:10788000624909680D7270BD2DE9F84F5F480068C4
:1078900045780027BA46062D1BD15C480068007861
:1078A00000F07F00002813D1584909688878012822
:1078B00003D15C490968CF690AE0022803D159491C
:1078C00009680F6A04E0032802D1564909684F6A23
:1078D00099E0002D67D14D4800684088002862D1AA
:1078E0004A480068C08802285DD14848006800798D
:1078F000002858D145480068007800F07F0030B972
:1079000042480068808810B9AFF22F677BE03F489B
:107910000068007800F07F00012811D13B49096818
:107920004879404909688A690021904700286AD14E
:1079300036480068807A002865D0AFF25F6762E061
:1079400032480068007800F07F0002285BD12F48A1
:107950000068407900F00F062C480068407900F07C
:1079600070092A480068407900F0800038B12E493B
:1079700001EB8600D0F8000C00F0300806E02A4940
:1079800001EB8600D0F8000C00F44058274800783E
:10799000B04238D9B9F1000F35D1B8F1000F32D06B
:1079A000AFF2C7672FE0082D08D1184800680078AB
:1079B00000F07F0038BBAFF2BB7724E00A2D22D164
:1079C00012480068007800F07F0001281BD10F48A2
:1079D0000068807AB8B10D480068408898B90B48B3
:1079E0000068007978B909480068C08801280AD180
:1079F0000649096848790B4909688A690021904756
:107A000008B9AFF2A977EFB1004811E0C400002037
:107A1000D4000020D6000020505C004000600040F0
:107A2000BC000020C800002000500040FC010020E5
:107A30000068A0F812A0AE48006887610020B8472F
:107A400000240FE0AA4A12685078AA4A1268116905
:107A500088470446032C05D10920A5490968087206
:107A6000BDE8F88FA2480068008A4FF6FF7188428F
:107A700004D109209E4909680872F1E7022C03D05D
:107A80009B480068008A20B9082099490968087253
:107A9000E6E797480068007800F08000E0B394487B
:107AA0000068C088009092480068008A0099884267
:107AB00004D98F4900980968088223E08C4800683F
:107AC000008A8B490968C98888421BDA884800689F
:107AD000008A8849096891F82C10884203DA00204E
:107AE000854908700EE082480068008A814909686B
:107AF00091F82C1090FBF1F201FB120010B901205B
:107B00007D4908707B48006890F82C107848006820
:107B10008182FFF7CFFD07E0FFE703207449096882
:107B2000087200037549088000BF99E710B57448D2
:107B300090F82C10002000F056FD6D480068007A87
:107B4000082805D140026D49088010206D49088041
:107B500067480068007A092801D1012010BD002083
:107B6000FCE708B56848006880B2001D674931F835
:107B7000100080B201EB400000905D480068007A80
:107B800009282FD000980078594909680870009892
:107B9000401C00900098007855490968487000988A
:107BA000401C00900098801C0090009931F8020B56
:107BB000009100F0B9FE4E49096848800098801C89
:107BC0000090009931F8020B009100F0ADFE484999
:107BD000096888800098801C0090009800884449BB
:107BE0000968C88001204249096808724048006855
:107BF000C08810B9FFF7B1FD01E0FFF745FEFFF7C0
:107C000095FF08BD30B50146414B1A78002011E0C0
:107C10000306404C04EB9353D3F8003C48F68F74B2
:107C20002340C4B2234304063A4D05EB9454C4F8F0
:107C3000003C401C9042EBD341F08003324C241FA7
:107C4000236030BD10B52A480068047A022C01D0A8
:107C5000042C05D1FFF72EFD25480068047A1CE0AE
:107C6000062C19D122480068407805280ED12048FA
:107C70000068007800F07F0040B91D490968C878A5
:107C8000FFF7C0FF24490968086A80471949096855
:107C900088688047082400E00824154909680C72A8
:107CA000FFF744FF10BD10B511480068047A032C9B
:107CB00001D0052C05D1FFF7AAFC0D480068047A15
:107CC0000EE0072C05D10B490968C86880470824D5
:107CD00006E0022C01D0042C01D1082400E0082485
:107CE000034909680C72FFF721FF10BD70470000BF
:107CF000C4000020C8000020BC000020D4000020E8
:107D000000020020D6000020505C004000600040CF
:107D1000FC01002000500040D000002010B50848B1
:107D20000849086002200968087207480749086086
:107D3000074808490860054909680868804710BD78
:107D4000DC2A0020C400002000020020C80000201F
:107D500030020020D000002010B5002473E147F667
:107D6000FF70EA490860EA48008800F00F00E9491E
:107D700008700846007800287ED1E448443800683E
:107D800000F44050E4490880E0484438006800F0BE
:107D90003000E2490880DD49443909684BF68F72AA
:107DA00001EA020080F40050D849443908600968AB
:107DB00048F6BF7201EA020080F02000D34944393E
:107DC0000860D348008800F01000002838D1084629
:107DD000006848F60F710840CC4944390860FFF745
:107DE00031FFCA49443909684BF68F7201EA020033
:107DF000C949098801F4805109B180F48050C6490D
:107E0000098801F4005109B180F40050BF49443998
:107E10000860096848F6BF7201EA0200BF490978A4
:107E200001F0100109B180F01000BC49097801F09F
:107E3000200109B180F02000B4494439086010BD28
:107E4000B2484438006884B204F08000D8B3AF4828
:107E50004438006848F60F710840AC49443908605E
:107E6000FFF7F0FEA949443909684BF68F7201EA21
:107E70000200A949098800E0A6E001F4805109B197
:107E800080F48050A449098801F4005109B180F4BC
:107E900000509E4944390860096848F6BF7201EAFB
:107EA00002009E49097801F0100109B180F010002C
:107EB0009A49097801F0200109B180F02000934926
:107EC00044390860BBE7FFE704F40060D8B38F488B
:107ED00044380068C0F30E0048F68F7108408B49A3
:107EE00044390860FFF73DFE8849443909684BF67C
:107EF0008F7201EA02008849098801F4805109B1B2
:107F000080F480508449098801F4005109B180F45B
:107F100000507E4944390860096848F6BF7201EA9A
:107F200002007E49097801F0100109B180F01000CB
:107F30007A49097801F0200109B180F020007349E5
:107F4000443908607BE7FFE704F4004000287AD05A
:107F50006E4844380068C0F30E0048F68F71084040
:107F60006A4944390860FFF79EFE68494439096848
:107F70004BF68F7201EA02006749098801F48051CB
:107F800009B180F480506449098801F4005109B1B5
:107F900080F400505D4944390860096848F6BF72B2
:107FA00001EA02005D49097801F0100109B180F091
:107FB00010005A49097801F0200109B180F0200031
:107FC0005249443908603AE752480078544901EB75
:107FD0008000D0F8000C84B204F40040C0B14D48D9
:107FE000007801EB8000D0F8000CC0F30E0048F6DA
:107FF0008F71084047490978494A02EB8101C1F86D
:10800000000C44490978491E464A52F8210080472D
:1080100004F08000B8B13F480078414901EB80008E
:10802000D0F8000C48F60F7108403A4909783C4AEC
:1080300002EB8101C1F8000C36490978491E3A4A21
:1080400052F8210080473148006880B230490880EA
:1080500000F4004000287FF482AE00BFEFE610B5C8
:10806000002449E047F6FF70284908602848008846
:1080700000F00F002749087008460078284901EBF6
:108080008000D0F8000C84B204F40040C8B121484C
:10809000007801EB8000D0F8000CC0F30E0048F629
:1080A0008F7108401B4909781D4A02EB8101C1F814
:1080B000000C18490978491E1A4A52F821008047D5
:1080C0001AE004F08000B8B112480078144901EBBE
:1080D0008000D0F8000C48F60F7108400D4909786F
:1080E0000F4A02EB8101C1F8000C0A490978491EC8
:1080F0000D4A52F8210080470448006880B20449C4
:10810000088000F400400028ACD110BD445C004061
:10811000BC010020C0000020D4000020D6000020B8
:1081200000500040DC010020C0010020F0B51446E2
:1081300004F1010C4FEA6C07DFF848C00CEB410377
:108140003D460AE00678401C90F800C046EA0C2242
:1081500023F8022B9B1C401C6D1E002DF2D1F0BD9C
:10816000F0B5561C7510074E06EB41042B4605E092
:1081700034F8047B20F8017B401C5B1E002BF7D1F8
:10818000F0BD000000600040F74908607047F64805
:10819000006880B27047F449091D08607047F248D2
:1081A000001D006880B27047EF480830006880B258
:1081B0007047ED490C3108607047EB480C3000689F
:1081C00080B270474FF6F8710140E74A10321160F3
:1081D0007047E5481030006880B27047E34B03EB0E
:1081E0008002C2F8001C70470146E04A02EB8100A1
:1081F000D0F8000C80B2704710B5DC4B03EB800266
:10820000D2F8002C48F68F131A400A43D74C04EBDF
:108210008003C3F8002C10BD0146D44A02EB810054
:10822000D0F8000C00F4C060704710B5CF4C04EBE0
:108230008003D3F8003C48F6BF7403EA040201F05F
:1082400010030BB182F0100201F020030BB182F099
:108250002002C64C04EB8003C3F8002C10BD10B5FF
:10826000C24C04EB8003D3F8003C4BF68F7403EA56
:10827000040201F480530BB182F4805201F40053E4
:108280000BB182F40052B94C04EB8003C3F8002C0C
:1082900010BD30B503460C461846FFF7A5FF05464E
:1082A000012C07D125F48050B04A02EB8301C1F8BC
:1082B000000C08E0022C06D125F01000AB4A02EBBE
:1082C0008301C1F8000C30BD0146A84A02EB8100D1
:1082D000D0F8000C00F0300070470146A34A02EBD2
:1082E0008100D0F8000C00F4405070479F4B03EB26
:1082F0008002D2F8002C48F6BF7302EA030181F035
:10830000100181F02001994B03EB8002C2F8001CA0
:108310007047964B03EB8002D2F8002C4BF68F731C
:1083200002EA030181F4805181F400518F4B03EB89
:108330008002C2F8001C70478C4A02EB8001D1F821
:10834000001C41F4807148F68F721140874B03EB9B
:108350008002C2F8001C7047844A02EB8001D1F809
:10836000001C48F68F621140804B03EB8002C2F87C
:10837000001C70477D4A02EB8001D1F8001C48F6D2
:108380008F621140794B03EB8002C2F8001C7047EA
:10839000764A02EB8001D1F8001C41F4807148F666
:1083A0008F721140714B03EB8002C2F8001C7047C2
:1083B0006E4A02EB8001D1F8001C41F4807148F64E
:1083C0008F721140694B03EB8002C2F8001C7047AA
:1083D000664A02EB8001D1F8001C48F68F6211401A
:1083E000624B03EB8002C2F8001C704701465F4AF3
:1083F00002EB8100D0F8000C00F03000102801D111
:10840000012070470020FCE70146584A02EB81003A
:10841000D0F8000C00F44050B0F5805F01D101208D
:1084200070470020FCE7514A02EB8001D1F8001CA4
:10843000C1F30E0148F68F7211404C4B03EB8002E2
:10844000C2F8001C7047494A02EB8001D1F8001CB9
:1084500048F60F721140454B03EB8002C2F8001C36
:108460007047424A02EB8001D1F8001C48F68F7237
:10847000114041F480413D4B03EB8002C2F8001CE7
:1084800070473A4A02EB8001D1F8001C48F68F721F
:10849000114041F04001354B03EB8002C2F8001C53
:1084A0007047324A02EB8001D1F8001C01F4804190
:1084B00069B102EB8001D1F8001C48F68F721140BF
:1084C00041F48041294B03EB8002C2F8001C704745
:1084D000264A02EB8001D1F8001C01F0400169B18D
:1084E00002EB8001D1F8001C48F68F72114041F078
:1084F00040011E4B03EB8002C2F8001C704710B510
:108500001A4B03EB8002D2F8002C48F68F731A4006
:108510000A43164C04EB8003C3F8002C10BD01463F
:10852000124A02EB8100D0F8000C00F00F007047F7
:1085300010B54A1052000C4B10331B689BB203EB72
:10854000C0030B4C44F8132010BD10B54A10530063
:10855000054A1032126892B202EBC002121D044C9E
:1085600044F8123010BD0000405C00400050004054
:10857000006000400146EF48006880B200EBC10097
:10858000ED4A32F8100080B270470146E9480068B1
:1085900080B200EBC100001DE74A32F8100080B243
:1085A0007047E44A126892B202EBC002921CE24B9E
:1085B00043F81210704702463E290BDD481101F0C6
:1085C0001F030BB9431E98B24FF4004343EA8023C4
:1085D000136007E0481001F001030BB1431C98B28F
:1085E00083021360704710B50246D248006880B21B
:1085F00000EBC200801DD04C04EB40033E290BDD94
:10860000481101F01F040CB9441EA0B24FF40044FD
:1086100044EA80241C6007E0481001F001040CB11A
:10862000441CA0B284021C6010BD0146C148006811
:1086300080B200EBC100801CBF4A32F81000C0F3CA
:10864000090070470146BB48006880B200EBC100DA
:10865000801DB94A32F81000C0F30900704730B5E8
:108660004B105B00B34C2468A4B204EBC004B24DC1
:1086700045F8143053105C00AE4B1B689BB203EB03
:10868000C0031B1D45F8134030BD10B54A10520001
:10869000A84B1B689BB203EBC003A74C44F8132004
:1086A00010BD10B54A105300A24A126892B202EBF4
:1086B000C002121DA04C44F8123010BD01469D4866
:1086C000006880B200EBC1009B4A32F8100080B213
:1086D000704701469748006880B200EBC100001D5A
:1086E000954A32F8100080B2704730B50B46012B26
:1086F0001FD19049096889B201EBC001891C8E4DD8
:1087000005EB41043E2A0BDD511102F01F050DB9A6
:108710004D1EA9B24FF4004545EA8125256007E0CA
:10872000511002F001050DB14D1CA9B28D0225605A
:108730000AE0022B08D17F49096889B201EBC00128
:10874000891C7D4C44F81120012B1FD179490968FF
:1087500089B201EBC001891D774D05EB41043E2A2A
:108760000BDD511102F01F050DB94D1EA9B24FF4DA
:10877000004545EA8125256007E0511002F001051A
:108780000DB14D1CA9B28D0225600AE0022B08D163
:108790006849096889B201EBC001891D664C44F83B
:1087A000112030BD30B5034601291FD16148006852
:1087B00080B200EBC300801C5F4D05EB40043E2AF5
:1087C0000BDD501102F01F050DB9451EA8B24FF484
:1087D000004545EA8025256007E0501002F00105BC
:1087E0000DB1451CA8B2850225600AE0022908D116
:1087F0005048006880B200EBC300801C4E4C44F827
:10880000102030BD30B5034601291FD1494800680A
:1088100080B200EBC300801D474D05EB40043E2AAB
:108820000BDD501102F01F050DB9451EA8B24FF423
:10883000004545EA8025256007E0501002F001055B
:108840000DB1451CA8B2850225600AE0022908D1B5
:108850003848006880B200EBC300801D364C44F8F5
:10886000102030BD01463348006880B200EBC100E3
:10887000801C314A32F81000C0F3090070470146ED
:108880002C48006880B200EBC100801D2A4A32F8F3
:108890001000C0F30900704701462648006880B206
:1088A00000EBC100801D244A32F8100000F47C4027
:1088B00008B1012070471F48006880B200EBC1007A
:1088C000801C1D4A32F81000C0F3090008B10220D4
:1088D000F0E70020EEE710B501290FD1174B03EBAD
:1088E0008002D2F8002C48F68F731A4042F0400202
:1088F000124C04EB8003C3F8002C10E002290ED1C7
:108900000E4B03EB8002D2F8002C48F68F731A400E
:1089100042F48042094C04EB8003C3F8002C10BDE4
:10892000024641EA022070470146CAB20B1243EAEE
:1089300002207047505C0040006000400050004042
:1089400010B50020FCF796FB0121C805FCF73FFCA1
:1089500010BD03202849086070472848817A19B162
:108960000521254A116002E00121234A1160704768
:1089700008B54FF4A060FEF7F5F814208DF800005C
:1089800002208DF8010000208DF8020001208DF8F2
:1089900003006846FEF7EBF82A208DF8000001205E
:1089A0008DF801006846FEF7E2F808BD704710B583
:1089B000134B18681B1D19681B1D1A68A8B1114CB0
:1089C000A070030A2371030CA371030E2372A1721A
:1089D0000B0A23730B0CA3730B0E2374A274130ADC
:1089E0002375130CA375130E237610BD10B500204C
:1089F00000F00AF810BD70478C020020DC2A00202D
:108A0000E8F7FF1FA10100200146002211B1012952
:108A100002D100E002E001E00120704700BF1046F3
:108A2000FBE72DE9F04180460C4615461E46B8F19D
:108A3000000F03D0B8F1010F08D106E0002732463D
:108A400029462046FBF784F803E002E00120BDE858
:108A5000F08100BF0FB10120F9E70020F7E72DE911
:108A6000F04180460C4615461E46B8F1000F03D073
:108A7000B8F1010F08D106E000273246294620460A
:108A8000FBF718F803E002E00120BDE8F08100BF29
:108A90000FB10120F9E70020F7E7014621B10129D4
:108AA00004D0022906D103E0002070470020FCE733
:108AB0000120FAE70120F8E72DE9F04104460D46D0
:108AC00016467D48007870B97C4850F82400684309
:108AD0007B490860794850F8240070437949086060
